:020000040000FA
:100000000C9462000C948A000C948A000C948A0070
:100010000C948A000C948A000C948A000C948A0038
:100020000C948A000C948A000C948A000C948A0028
:100030000C948A000C948A000C948A000C948A0018
:100040000C94EE060C948A000C945E070C9438070E
:100050000C948A000C948A000C948A000C948A00F8
:100060000C9490070C948A000000000024002700E4
:100070002A0000000000250028002B0000000000DE
:1000800023002600290004040404040404040202DA
:100090000202020203030303030301020408102007
:1000A0004080010204081020010204081020000012
:1000B0000008000201000003040700000000000027
:1000C0000000AF0811241FBECFEFD8E0DEBFCDBFC8
:1000D00012E0A0E0B1E0EAE9F9E102C005900D927A
:1000E000A834B107D9F723E0A8E4B2E001C01D921B
:1000F000A53CB207E1F710E0C2E6D0E004C02197CA
:10010000FE010E94B10CC136D107C9F70E94F70861
:100110000C94CB0C0C940000833081F028F48130D7
:1001200099F08230A9F008958730A9F08830C9F09D
:100130008430B1F4809180008F7D03C08091800075
:100140008F7780938000089584B58F7784BD08955C
:1001500084B58F7DFBCF8091B0008F778093B00006
:1001600008958091B0008F7DF9CFCF93DF93282F32
:1001700030E0F901E255FF4F8491F901E656FF4F57
:10018000D491F901EA57FF4FC491CC23A1F081111A
:100190000E948C00EC2FF0E0EE0FFF1FE458FF4FA1
:1001A000A591B491EC91ED2381E090E009F480E019
:1001B000DF91CF91089580E090E0FACF1F93CF9325
:1001C000DF93282F30E0F901E255FF4F8491F901C8
:1001D000E656FF4FD491F901EA57FF4FC491CC2363
:1001E000A9F0162F81110E948C00EC2FF0E0EE0F89
:1001F000FF1FEE58FF4FA591B4918FB7F894EC9183
:10020000111108C0D095DE23DC938FBFDF91CF9111
:100210001F910895DE2BF8CFCF93DF9390E0FC0180
:10022000E656FF4F24918A579F4FFC018491882303
:10023000C9F090E0880F991FFC01E859FF4FA59184
:10024000B491FC01EE58FF4FC591D49161110DC0DE
:100250009FB7F8948C91209582238C9388812823D2
:1002600028839FBFDF91CF910895623051F49FB7EB
:10027000F8943C91822F809583238C93E8812E2BD8
:10028000EFCF8FB7F894EC912E2B2C938FBFEACF42
:100290003FB7F89480910C0390910D03A0910E0349
:1002A000B0910F0326B5A89B05C02F3F19F001960A
:1002B000A11DB11D3FBFBA2FA92F982F8827BC01C0
:1002C000CD01620F711D811D911D42E0660F771FE8
:1002D000881F991F4A95D1F708958F929F92AF92E8
:1002E000BF92CF92DF92EF92FF926B017C010E944E
:1002F00048014B015C01C114D104E104F104B9F0DF
:100300000E944801681979098A099B09683E73406F
:100310008105910580F321E0C21AD108E108F108B6
:1003200088EE880E83E0981EA11CB11CE4CFFF90DC
:10033000EF90DF90CF90BF90AF909F908F900895F7
:1003400008950895AF92BF92CF92DF92EF92FF92FD
:100350000F931F93CF93DF936C017B018B01040FED
:10036000151FEB015E01AE18BF08C017D10759F089
:100370006991D601ED91FC910190F081E02DC601CB
:100380000995892B79F7C501DF91CF911F910F91C5
:10039000FF90EF90DF90CF90BF90AF900895FC0159
:1003A000538D448D252F30E0842F90E0821B930BDA
:1003B000541710F0CF96089501970895FC01918D80
:1003C000828D981761F0A28DAE0FBF2FB11D5D9683
:1003D0008C91928D9F5F9F73928F90E008958FEF25
:1003E0009FEF0895FC01918D828D981731F0828DD9
:1003F000E80FF11D858D90E008958FEF9FEF089530
:10040000FC01918D228D892F90E0805C9F4F821B93
:1004100091098F739927089580E193E00E9400026B
:1004200021E0892B09F420E0822F089580E090E0FC
:10043000892B29F00E940C0281110C940000089570
:10044000FC01A48DA80FB92FB11DA35ABF4F2C9149
:10045000848D90E001968F739927848FA689B78940
:100460002C93A089B1898C91837080648C93938D37
:10047000848D981306C00288F389E02D80818F7DDA
:1004800080830895EF92FF920F931F93CF93DF9392
:10049000EC0181E0888F9B8D8C8D98131AC0E889C0
:1004A000F989808185FF15C09FB7F894EE89FF898F
:1004B0006083E889F98980818370806480839FBF2D
:1004C00081E090E0DF91CF911F910F91FF90EF902D
:1004D0000895F62E0B8D10E00F5F1F4F0F7311273D
:1004E000E02E8C8D8E110CC00FB607FCFACFE88978
:1004F000F989808185FFF5CFCE010E942002F1CFDE
:10050000EB8DEC0FFD2FF11DE35AFF4FF0829FB7EB
:10051000F8940B8FEA89FB8980818062CFCFCF93DB
:10052000DF93EC01888D8823B9F0AA89BB89E8891B
:10053000F9898C9185FD03C0808186FD0DC00FB6C1
:1005400007FCF7CF8C9185FFF2CF808185FFEDCF3F
:10055000CE010E942002E9CFDF91CF910895209132
:10056000B002260F3327331F21323105ECF42091DE
:10057000D402FC0190E080E0243069F082E008952C
:10058000A091B0022191AC0140575D4FA40FB52F4F
:10059000B11D2C930196861798F38091B002680FD5
:1005A0006093B00280E0089581E008951092D40233
:1005B00081E08093D6021092D50261E082E10E9430
:1005C000DE0061E083E10E94DE00E9EBF0E0808183
:1005D0008E7F808380818D7F808388E48093B800C4
:1005E00085E48093BC000895CF93DF9391E09093CE
:1005F0008F028823B9F0C091B800D091BA008091E1
:10060000BC008A7B8093BC0060E082E10E94DE0037
:1006100060E083E10E94DE000E94D602D093BA001F
:10062000C093B800DF91CF9108950895E091010340
:1006300080910003E81730F4F0E0E659FD4F808127
:1006400090E008958FEF9FEF0895909101038091BE
:1006500000032FEF3FEF981748F4E92FF0E0E65939
:10066000FD4F208130E09F5F90930103C901089501
:100670008091000390910103891B990B0895CF92FB
:10068000DF92EF92FF920F931F93CF93DF937C0142
:10069000CB018A0120916902222389F0EB016B01D1
:1006A000C40ED51ECC15DD0569F06991D701ED9119
:1006B000FC910190F081E02DC7010995F3CF642FE3
:1006C0000E94AF02C801DF91CF911F910F91FF905F
:1006D000EF90DF90CF900895CF93DF931F92CDB727
:1006E000DEB76983209169022223F9F02091FE028E
:1006F000203258F021E030E0FC013383228390E087
:1007000080E00F90DF91CF9108958091FF02E82F54
:10071000F0E0E75BFD4F998190838F5F8093FF024C
:100720008093FE0281E090E0ECCF61E0CE01019683
:100730000E94AF02F7CFCF92DF92EF92FF920F931A
:100740001F93CF93DF93FC01C48121E020936902C2
:10075000C09348021092FF021092FE028385682B1C
:100760008DEA93E00E946C03D091FE02D13208F032
:1007700092C00E9448016B017C018091D4028111DA
:1007800065C082E08093D40281E08093D6028FEF2F
:100790008093D3021092F802D093F702A9E4B2E05A
:1007A000E7EDF2E080E0D81385C01092F902809165
:1007B000F902CC0FC82BC093F9028091D502813089
:1007C00009F07CC01092D5020E9448016B017C01A7
:1007D0008091F9028093BB0080918B0290918C02F2
:1007E000A0918D02B0918E02892B8A2B8B2B99F0D0
:1007F0000E94480100918B0210918C0220918D0281
:1008000030918E026C197D098E099F090617170712
:1008100028073907E0F18091BC0083FDD9CF85EC32
:100820008093BC000E9448016B017C018091D4023E
:10083000823009F445C08091D3028F3F61F18091ED
:10084000D302803241F18091D30225C080918B0286
:1008500090918C02A0918D02B0918E02892B8A2BEF
:100860008B2B09F48ACF0E94480100918B021091D2
:100870008C0220918D0230918E026C197D098E09B7
:100880009F09061717072807390708F076CF8091C8
:100890008A020E94F4021092FF021092FE0210924D
:1008A0006902DF91CF911F910F91FF90EF90DF9040
:1008B000CF9008959D9191938F5F75CF85EEB0CFC6
:1008C00080918B0290918C02A0918D02B0918E024A
:1008D000892B8A2B8B2B09F4A9CF0E944801009108
:1008E0008B0210918C0220918D0230918E026C1936
:1008F0007D098E099F09061717072807390708F091
:1009000095CFC5CF089590E080E008951F93CF93D1
:10091000DF93182FEB010E94B50021E0892B09F429
:1009200020E08881821302C080E016C065E070E09C
:1009300080E090E00E946D01812F0E94B5009C0133
:1009400091E02115310509F490E08881891761F360
:10095000988381E0232B41F7DF91CF911F91089578
:1009600060E08CE00E94DE0060E08BE00E94DE0030
:1009700060E08AE00E94DE0060E089E00C94DE0026
:10098000CF92DF92EF92FF920F931F93CF93DF935B
:100990008B01D0E0C0E06C01990FEE08FF08C01792
:1009A000D107D4F46AE070E080E090E00E946D012D
:1009B00061E08DE00E94DE00C701B6010E946D017A
:1009C00060E08DE00E94DE0060ED77E080E090E086
:1009D0000E946D012196E3CFDF91CF911F910F917E
:1009E000FF90EF90DF90CF9008950F931F93CF93D8
:1009F000DF93BC0180E098E00E947B0C8B01D0E08B
:100A0000C0E00C171D070CF45AC061E08CE00E9496
:100A1000DE0060E08BE00E94DE0060E08AE00E9481
:100A2000DE0060E089E00E94DE0065E070E080E0CA
:100A300090E00E946D0160E08CE00E94DE0061E0C9
:100A40008BE00E94DE0060E08AE00E94DE0060E051
:100A500089E00E94DE0065E070E080E090E00E94A6
:100A60006D0160E08CE00E94DE0060E08BE00E949F
:100A7000DE0061E08AE00E94DE0060E089E00E9422
:100A8000DE0065E070E080E090E00E946D0160E0D3
:100A90008CE00E94DE0060E08BE00E94DE0060E0FF
:100AA0008AE00E94DE0061E089E00E94DE0065E0ED
:100AB00070E080E090E00E946D012496A2CF60ED8E
:100AC00077E080E090E0DF91CF911F910F910C943F
:100AD0006D010F931F93CF938C01C62F0E949B0330
:100AE0006C2F6460C8010E949B036C2F6B7FC80150
:100AF0000E949B0383EC90E00197F1F7CF911F9147
:100B00000F9108950F931F93CF93DF938C01D62FEE
:100B1000C42F607F642B0E94690580E1D89FB001DB
:100B200011246C2BC801DF91CF911F910F910C9470
:100B3000690540E061E089EB93E00E9482058BE368
:100B40009FE10197F1F70895CF93DF93CDB7DEB71B
:100B500028970FB6F894DEBF0FBECDBF98E0E4E053
:100B6000F1E0DE01119601900D929A95E1F79091D6
:100B7000C103961708F46FEF262F30E0220F331FC2
:100B800041E050E04C0F5D1F240F351FF9016081DB
:100B9000680F606840E089EB93E028960FB6F89400
:100BA000DEBF0FBECDBFDF91CF910C94820541E037
:100BB0000E94820581E090E00895FB0101900020F1
:100BC000E9F73197AF01461B570BDC01ED91FC9122
:100BD0000280F381E02D0994BC0189EB93E00C9431
:100BE000DD05CF93DF93BC0180E193E00E94DD053A
:100BF000EC016CE371E080E193E00E94DD058C0F75
:100C00009D1FDF91CF9108950E94990560E080E0DB
:100C10000E94A4058FE391E00E94EC058FE491E02F
:100C20000C94F1058F929F92AF92BF92CF92DF9278
:100C3000EF92FF92CF93DF93CDB7DEB7A1970FB6B8
:100C4000F894DEBF0FBECDBF6C01990FEE08FF0810
:100C5000F7FE40C041E06DE289EB93E00E9482051F
:100C600022273327A9012C193D094E095F0919A232
:100C7000CE0181967C019AE0892E912CA12CB12C79
:100C8000CA01B901A50194010E948F0C605DF701B2
:100C900062937F01211531054105510589F790E0E7
:100CA00080E0309729F0BF0189EB93E00E94DD05D9
:100CB0000196A1960FB6F894DEBF0FBECDBFDF91AF
:100CC000CF91FF90EF90DF90CF90BF90AF909F902B
:100CD0008F900895A701960119A2CE0181967C01FB
:100CE0008AE0882E912CA12CB12CCA01B901A50152
:100CF00094010E948F0C605DF70162937F012115C2
:100D000031054105510589F790E080E0309789F27F
:100D1000BF0189EB93E00E94DD05CBCFCF93DF933A
:100D2000EC016CE271E080E090E00E946D010E94B5
:100D3000990560E080E00E94A40585E691E00E94AC
:100D4000EC0561E080E00E94A40586E791E00E9446
:100D5000EC0561E08AE00E94A405CE010E94120623
:100D600080E891E0DF91CF910C94F10585ED8093BF
:100D7000BC0080918B0290918C02A0918D02B09169
:100D80008E020796A11DB11D23E0B695A7959795F4
:100D900087952A95D1F72091BC0024FD03C01092BD
:100DA000D402089540918B0250918C0260918D0283
:100DB00070918E02452B462B472B69F30097A105B6
:100DC000B10541F02AE22A95F1F700C00197A10987
:100DD000B109E1CF80918A020C94F4021F920F9224
:100DE0000FB60F9211242F933F938F939F93AF933E
:100DF000BF938091080390910903A0910A03B091D9
:100E00000B033091070323E0230F2D3758F501968C
:100E1000A11DB11D2093070380930803909309033C
:100E2000A0930A03B0930B0380910C0390910D03E0
:100E3000A0910E03B0910F030196A11DB11D8093E7
:100E40000C0390930D03A0930E03B0930F03BF9177
:100E5000AF919F918F913F912F910F900FBE0F9067
:100E60001F90189526E8230F0296A11DB11DD2CF21
:100E70001F920F920FB60F9211242F933F934F930F
:100E80005F936F937F938F939F93AF93BF93EF93F2
:100E9000FF9380E193E00E942002FF91EF91BF91C8
:100EA000AF919F918F917F916F915F914F913F9102
:100EB0002F910F900FBE0F901F9018951F920F92B9
:100EC0000FB60F9211242F938F939F93EF93FF935D
:100ED000E0912003F09121038081E0912603F091BD
:100EE000270382FD1BC09081809129038F5F8F7340
:100EF00020912A03821741F0E0912903F0E0E05F9E
:100F0000FC4F958F80932903FF91EF919F918F91D3
:100F10002F910F900FBE0F901F9018958081F4CFE6
:100F20001F920F920FB60F9211242F933F934F935E
:100F30005F936F937F938F939F93AF93BF93EF9341
:100F4000FF938091B900887F803609F44AC0F0F59C
:100F5000883209F4A7C018F5803109F49BC0B8F4B1
:100F6000882309F4F9C0883009F494C0FF91EF9107
:100F7000BF91AF919F918F917F916F915F914F91B1
:100F80003F912F910F900FBE0F901F9018958831B1
:100F900009F488C0803251F78093D30214C08034A2
:100FA00009F49DC040F48033B9F38833F9F6809397
:100FB000D30285ECB0C0803509F485C0883509F4CA
:100FC00096C0883499F60E94B606D0CF883909F4C5
:100FD0008CC038F5883729F050F4883611F0803706
:100FE00029F683E08093D4021092D20257C0883849
:100FF00009F47BC0803919F0803809F0B7CF8091AF
:10100000D202803208F071C0E091D20281E08E0FEE
:101010008093D2028091BB00F0E0EE54FD4F8083BC
:101020003DC0803B39F0E0F4803A09F479C0883A59
:1010300009F09CCF84E08093D4021092B102109208
:10104000B002E091FC02F091FD0209958091B0029E
:1010500081110FC081E08093B0021092900209C00C
:10106000803C09F4A6CF883C09F4A3CF883B09F063
:101070007DCFE091B10281E08E0F8093B102F0E06C
:10108000E057FD4F80818093BB009091B102809129
:10109000B00229C08091F9028093BB0085EC809357
:1010A000BC0064CF9091F8028091F702981758F530
:1010B000E091F80281E08E0F8093F802F0E0E952AF
:1010C000FD4F8081E9CFE091F80281E08E0F80939F
:1010D000F8028091BB00F0E0E952FD4F80839091CF
:1010E000F8028091F7029817C8F285E8D8CFE0910E
:1010F000F80281E08E0F8093F8028091BB00F0E04F
:10110000E952FD4F80838091D60281115CCF81E04E
:101110008093D50284EA8093BC001092D40226CF3B
:1011200085EC8093BC001092D4028091D202803270
:1011300030F4E091D202F0E0EE54FD4F1082609165
:10114000D20270E0E091FA02F091FB0282EB92E0B1
:1011500009951092D2020ACF1092D30234CFE0E167
:10116000F3E01382128288EE93E0A0E0B0E0848383
:101170009583A683B78320E131E03183208325EC7A
:1011800030E03587248724EC30E03787268720EC51
:1011900030E0318B208B21EC30E0338B228B22EC42
:1011A00030E0358B248B26EC30E0378B268B118E8C
:1011B000128E138E148EEDEAF3E013821282848372
:1011C0009583A683B78382E291E091838083E9EBE4
:1011D000F3E01382128284E391E09183808387E2BB
:1011E000848380E1818782E08287138608957894E2
:1011F00084B5826084BD84B5816084BD85B582601C
:1012000085BD85B5816085BD80916E0081608093CC
:101210006E00109281008091810082608093810035
:101220008091810081608093810080918000816045
:10123000809380008091B10084608093B1008091A0
:10124000B00081608093B00080917A0084608093C8
:101250007A0080917A00826080937A0080917A008F
:10126000816080937A0080917A00806880937A0010
:101270001092C10062E082E00E940C0162E083E013
:101280000E940C0162E084E00E940C0161E089E0B0
:101290000E940C0161E08AE00E940C0161E08BE099
:1012A0000E940C0161E08CE00E940C0160E08DE086
:1012B0000E940C01E0912003F091210382E08083E1
:1012C000E0911C03F0911D031082E0911E03F09148
:1012D0001F038FEC808310922803E0912403F09188
:1012E000250386E08083E0912203F091230380812F
:1012F00080618083E0912203F091230380818860E4
:101300008083E0912203F0912303808180688083B1
:10131000E0912203F091230380818F7D80831092DE
:101320000103109200031092FF021092FE020E942D
:10133000D60280EA91E09093FD028093FC0281EA5C
:1013400091E09093FB028093FA021092BE03809189
:10135000C303823018F098E09093BE038093C103DA
:1013600062E370E080E090E00E946D016091C40350
:1013700089EB93E00E949B0368EE73E080E090E0CD
:101380000E946D0160E389EB93E00E946905CBE464
:10139000D6E4CE010197F1F760E389EB93E00E9478
:1013A00069052197F1F760E389EB93E00E946905F5
:1013B00083E592E00197F1F760E289EB93E00E9408
:1013C00069056091BE03606240E089EB93E00E9492
:1013D000820584E08093BF0340E06CE089EB93E0FA
:1013E0000E9482050E94990582E08093C00340E03C
:1013F00066E089EB93E00E94820540E062E089EBC1
:1014000093E00E9482058BE39FE10197F1F788E06A
:101410008093C40360E089EB93E00E949B031092E9
:10142000060310920503C8E0D0E086E0E82EF12C18
:1014300097E0C92ED12C25E0222E312C4424439450
:10144000512CE0910503F0910603E930F10508F015
:1014500038C0E35DF54F0C94B10C360A6E0AB00A41
:10146000EB0A260B5C0B870BC90B130C68EC70E0C6
:1014700080E090E00E946D010E94990560E080E0AC
:101480000E94A4058DE991E00E94EC0561E080E0F6
:101490000E94A40588EA91E00E94EC0564EF71E0E7
:1014A00080E090E00E946D0164E073E083E090E0F2
:1014B0000E948604882309F4FAC0509206034092E1
:1014C000050380E090E0892B09F4BBCF0E940C0259
:1014D000882309F4B6CF0E940000B3CF68EC70E017
:1014E00080E090E00E946D010E94990560E080E03C
:1014F0000E94A40588EB91E00E94EC0561E080E089
:101500000E94A40588EA91E00E94EC058FEB91E02F
:101510000E94F10564E073E083E090E00E9486049D
:10152000882339F084E090E09093060380930503CC
:10153000C8CF63E073E084E090E00E9486048823D3
:1015400019F082E090E0F0CF62E073E082E090E09A
:101550000E948604882309F4B0CF83E090E0E4CFB2
:1015600068EC70E080E090E00E946D010E949905B7
:1015700060E080E00E94A40583ED91E00E94EC050C
:1015800061E080E00E94A40588EA91E00E94EC05F9
:101590008FED91E00E94F10564E073E083E090E05C
:1015A0000E948604882329F03092060320920503C6
:1015B00088CF63E073E084E090E00E9486048111AC
:1015C000CCCF62E073E082E090E00E948604882342
:1015D00009F4B7CF72CF68EC70E080E090E00E9431
:1015E0006D010E94990560E080E00E94A40588EFEB
:1015F00091E00E94EC0561E080E00E94A40588EA89
:1016000091E00E94EC0587E092E00E94F10564E021
:1016100073E083E090E00E948604882329F0D09252
:101620000603C09205034DCF63E073E084E090E0D1
:101630000E948604811141CF62E073E082E090E075
:101640000E948604882309F488CF7BCF68EC70E081
:1016500080E090E00E946D010E94040603E010E02B
:101660006CE271E080E090E00E946D0163E070E068
:101670008EE591E00E94C00484E090E00E94F504B1
:101680000E94B00464E170E080E090E00E946D018F
:101690000150110929F763E070E08EE591E00E94A6
:1016A000C00464E170E080E090E00E946D0110925F
:1016B00006031092050305CF68EC70E080E090E02F
:1016C0000E946D010E94040683E068167104E4F430
:1016D0006CE271E080E090E00E946D016CE070E0EF
:1016E0008EE591E00E94C00484E090E00E94F50441
:1016F0000E94B00464E170E080E090E00E946D011F
:101700009FEF691A790AE0CF6CE070E0C6CF68EC11
:1017100070E080E090E00E946D010E94040610E0FD
:1017200000E08090000190900101A0900201B09033
:101730000301C401019708171907FCF468EC70E075
:1017400080E090E00E946D01B5018AEF90E00E9478
:10175000C00464EF71E080E090E00E946D01C4017C
:101760000E94F5040E94B00464EA76E080E090E014
:101770000E946D010F5F1F4FD4CF6CE271E080E0DB
:1017800090E00E946D01B5018AEF90E00E94C004D4
:101790008ECF80910001909101010E948E0664E03D
:1017A00073E083E090E00E948604882359F0D09390
:1017B0000603C093050380910001909101010E94EE
:1017C0008E067FCE63E073E084E090E00E948604A2
:1017D0000091000110910101882379F00F5F1F4FE4
:1017E000073011052CF41093010100930001E3CFA1
:1017F000F0920101E0920001DECF62E073E082E04E
:1018000090E00E948604882349F00150110917FFD7
:10181000EACF1092010110920001CDCFD0920603C1
:10182000C0920503C8CF00910201109103016CE240
:1018300071E080E090E00E946D010E94990560E0F7
:1018400080E00E94A40585E691E00E94EC0561E03D
:1018500080E00E94A40584E292E00E94EC0561E031
:1018600089E00E94A405C8010E9412068DE292E060
:101870000E94F10564E073E083E090E00E9486043A
:10188000882329F0F0920603E09205031ACE63E064
:1018900073E084E090E00E948604882391F08091B8
:1018A0000201909103010196893091052CF49093E7
:1018B00003018093020105CED0930301C09302017E
:1018C00000CE62E073E082E090E00E94860488230C
:1018D00069F0809102019091030101971816190691
:1018E00034F31092030110920201EBCDD093060362
:1018F000C0930503E6CD97FB072E16F4009407D09E
:1019000077FD09D00E94B70C07FC05D03EF49095F6
:1019100081959F4F0895709561957F4F0895A1E23D
:101920001A2EAA1BBB1BFD010DC0AA1FBB1FEE1F59
:10193000FF1FA217B307E407F50720F0A21BB30BA4
:10194000E40BF50B661F771F881F991F1A9469F720
:1019500060957095809590959B01AC01BD01CF017C
:101960000895EE0FFF1F0590F491E02D0994AA1B36
:10197000BB1B51E107C0AA1FBB1FA617B70710F07A
:10198000A61BB70B881F991F5A95A9F780959095AC
:10199000BC01CD010895F894FFCF020004000000BF
:1019A000400014005400000000004202A201CF01D8
:1019B0008F020002DE01F201000000006C033F0311
:1019C0008304150338032503160300000000D70520
:1019D000A201830482040D0A00446973747269626F
:1019E00075696E646F2E2E2E0050726F636573736F
:1019F000616D656E746F204A6F67616E646F002D54
:101A0000203C2D20415045525445202D3E202B0096
:101A1000504C41594552533A200050726F636573E0
:101A200073616D656E746F20446566696E652050E4
:101A30006C61796572730042656D2D76696E646FB5
:101A400021005072657373696F6E6520456E746511
:101A50007200545255434F3A0050726F636573736E
:101A6000616D656E746F20547275636F00505245DE
:101A7000534944454E54453A0050726F6365737341
:101A8000616D656E746F20507265736964656E7404
:101A900065004A4F474F2047454E455249434F3A0C
:101AA0000050726F63657373616D656E746F204A69
:101AB0006F676F2047656EC3A97269636F0043410A
:101AC000525441533A200050726F63657373616DD5
:101AD000656E746F20446566696E6520436172743B
:021AE0006100A3
:107E0000112484B714BE81FFF0D085E080938100F7
:107E100082E08093C00088E18093C10086E0809377
:107E2000C20080E18093C4008EE0C9D0259A86E02C
:107E300020E33CEF91E0309385002093840096BBD3
:107E4000B09BFECF1D9AA8958150A9F7CC24DD24C4
:107E500088248394B5E0AB2EA1E19A2EF3E0BF2EE7
:107E6000A2D0813461F49FD0082FAFD0023811F036
:107E7000013811F484E001C083E08DD089C08234E0
:107E800011F484E103C0853419F485E0A6D080C0E4
:107E9000853579F488D0E82EFF2485D0082F10E0AE
:107EA000102F00270E291F29000F111F8ED06801E7
:107EB0006FC0863521F484E090D080E0DECF843638
:107EC00009F040C070D06FD0082F6DD080E0C81688
:107ED00080E7D80618F4F601B7BEE895C0E0D1E017
:107EE00062D089930C17E1F7F0E0CF16F0E7DF06D8
:107EF00018F0F601B7BEE89568D007B600FCFDCFD4
:107F0000A601A0E0B1E02C9130E011968C91119780
:107F100090E0982F8827822B932B1296FA010C0160
:107F200087BEE89511244E5F5F4FF1E0A038BF0790
:107F300051F7F601A7BEE89507B600FCFDCF97BE46
:107F4000E89526C08437B1F42ED02DD0F82E2BD052
:107F50003CD0F601EF2C8F010F5F1F4F84911BD097
:107F6000EA94F801C1F70894C11CD11CFA94CF0C13
:107F7000D11C0EC0853739F428D08EE10CD085E9AC
:107F80000AD08FE07ACF813511F488E018D01DD067
:107F900080E101D065CF982F8091C00085FFFCCF94
:107FA0009093C60008958091C00087FFFCCF809118
:107FB000C00084FD01C0A8958091C6000895E0E648
:107FC000F0E098E1908380830895EDDF803219F02E
:107FD00088E0F5DFFFCF84E1DECF1F93182FE3DFCA
:107FE0001150E9F7F2DF1F91089580E0E8DFEE27F6
:047FF000FF270994CA
:027FFE00040479
:00000001FF
